:020000040800F2
:10000000600800208D0400089D0100089F01000881
:10001000A3010008A7010008AB01000800000000D0
:10002000000000000000000000000000AF01000818
:10003000B101000800000000B3010008B50100088C
:10004000A7040008A7040008A7040008A7040008E4
:10005000A7040008A7040008A7040008A7040008D4
:10006000A7040008A7040008A7040008A7040008C4
:10007000A7040008A7040008A7040008A7040008B4
:10008000A7040008A7040008A7040008A7040008A4
:10009000A7040008A7040008A7040008C567000813
:1000A000A7040008A7040008A7040008A704000884
:1000B000A7040008A7040008A7040008A704000874
:1000C000A7040008A7040008A7040008A704000864
:1000D000A70400083B040008A70400087D6E000880
:1000E000A7040008A7040008A704000800F002F80D
:1000F00000F03FF80AA090E8000C82448344AAF183
:100100000107DA4501D100F034F8AFF2090EBAE880
:100110000F0013F0010F18BFFB1A43F0010318473B
:100120005097000070970000103A24BF78C878C13B
:10013000FAD8520724BF30C830C144BF04680C60ED
:10014000704700000023002400250026103A28BF35
:1001500078C1FBD8520728BF30C148BF0B60704739
:10016000642907F01380002070471FB51FBD10B52C
:1001700010BD07F0CBF91146FFF7F7FF00F00CF9BF
:1001800007F0E9F903B4FFF7F2FF03BC02F018FE31
:1001900030BF72B662B680F308887047704700BF00
:1001A000FEE700BFFEE700BFFEE700BFFEE77047C7
:1001B00070477047704700000CB500200190009018
:1001C0006C48006840F480306A49086000BF6948A4
:1001D000006800F4003000900198401C01900098E5
:1001E00018B90198B0F5A06FF1D16248006800F429
:1001F000003010B10120009001E000200090009834
:10020000012843D15C48006840F010005A4908605A
:100210000846006820F0030008600846006840F0C7
:1002200002000860534840685249486008464068E8
:1002300048600846406840F480604860084640686E
:1002400020F47C1048600846406840F4E81048609C
:100250000846006840F08070086000BF45480068AC
:1002600000F000700028F9D04248406820F00300F8
:10027000404948600846406840F00200486000BFBE
:100280003C48406800F00C000828F9D10CBD10B5BE
:10029000FFF792FF10BD10B53648006840F001002E
:1002A000344908600846406834490840314948608C
:1002B00008460068324908402E4908600846006830
:1002C00020F4802008600846406820F4FE00486062
:1002D0004FF41F008860FFF7DAFF4FF000602949F4
:1002E000086010BD10B5002100200022214B5B6882
:1002F00003F00C0121B1042906D0082928D107E018
:10030000214B224C236027E01F4B204C236023E02D
:10031000184B5B6803F47010164B5B6803F4803273
:10032000022303EB904022B9194B4343174C23603F
:100330000DE0104B5B6803F4003323B1144B4343CF
:10034000124C236003E0104B4343104C236003E046
:100350000D4B0E4C236000BF00BF064B5B68C3F320
:1003600003130C4CE15C094B1B68CB40074C23602A
:1003700010BD000000100240002002400000FFF805
:10038000FFFFF6FE08ED00E000127A0000000020FA
:1003900000093D000400002008B500240121304878
:1003A00000F0EDFB01212F4800F0E9FB022002F0F4
:1003B000B3F802F041F802F007FA4FF4E13002F02E
:1003C000ADFC4FF4165002F00AFD02F05BFD03F0A5
:1003D000B6F903F0C8F902F021FB02F071FB02F05C
:1003E0005FFA002141F61F4002F078FC06F0F3FBB3
:1003F00002F020FA20E0B4B91B48006808F012F9B6
:1004000005B21A4800782B4600901948008802B2BD
:100410001848008801B2184806F057FB06F030FA79
:10042000601CC4B204E0601CC4B2192C00D10024CA
:1004300012490D4803F08BFBDDE710B540F2255162
:100440000D4801F0E7FC50B140F225510A4801F097
:100450000BFD0B4B0B4A0C49074806F049FA10BD3F
:100460000004300000023000BC000020C400002066
:10047000EC000020E800002000380140C00000200F
:10048000C5000020F4000020F0000020094880474B
:1004900009480047FEE7FEE7FEE7FEE7FEE7FEE766
:1004A000FEE7FEE7FEE7FEE704480549054A064B7E
:1004B0007047000097020008ED000008600200206D
:1004C00060080020600400206004002010B504468D
:1004D000FA48844208D10121401501F067FE00214D
:1004E000601501F063FE17E0F548844208D1012150
:1004F000001501F05BFE0021201501F057FE0BE016
:10050000F048844208D10121C80301F04FFE0021C8
:100510004FF4004001F04AFE10BD30B50246002005
:1005200000235068E84C20400D790C6844EA05240B
:10053000204350609068E54C2040D1E902542C43A0
:100540004D7944EA450420439060D06A20F470005D
:100550000C7C641EE4B2234340EA0350D06230BDF9
:1005600000210160017141718160C160012101744C
:10057000704721B1826842F00102826003E0826824
:1005800022F001028260704721B1826842F48072D9
:10059000826003E0826822F480728260704710B546
:1005A0000023CBB21AB144681C43446002E04468A3
:1005B0009C43446010BD816841F008018160704730
:1005C000014600208A6802F008020AB1012000E01A
:1005D00000207047816841F0040181607047014646
:1005E00000208A6802F004020AB1012000E0002025
:1005F000704721B1826842F4A002826003E0826801
:1006000022F4A00282607047014600208A6802F44A
:1006100080020AB1012000E00020704710B50A46B0
:1006200000210023416821F46041531E41EA433117
:10063000416010BD21B1426842F40062426003E0B3
:10064000426822F4006242607047F0B504460D46ED
:1006500000200021092D11DDE068A5F10A0606EB56
:100660004607072606FA07F18843A5F10A0606EBB6
:10067000460603FA06F10843E0600CE0206905EB4A
:100680004507072606FA07F1884305EB450603FAF6
:1006900006F108432061072A0FDA606B561E06EB4D
:1006A00086071F2606FA07F18843561E06EB8606C4
:1006B00005FA06F10843606322E00D2A0FDA206B89
:1006C000D61F06EB86071F2606FA07F18843D61FBA
:1006D00006EB860605FA06F10843206310E0E06A9F
:1006E000A2F10D0606EB86071F2606FA07F18843DE
:1006F000A2F10D0606EB860605FA06F10843E06254
:10070000F0BD21B1826842F48012826003E0826809
:1007100022F48012826070470146C86C80B2704734
:1007200066484C300068704721B1426842F48062EC
:10073000426003E0426822F480624260704721B167
:10074000426842F48052426003E0426822F48052E0
:10075000426070470A460021816821F4E04111435C
:100760008160704721B1826842F40042826003E0F8
:10077000826822F400428260704721B1826842F4AC
:100780000212826003E0826822F4021282607047E3
:10079000014600208A6802F400120AB1012000E03C
:1007A00000207047F0B504461546002000220026C0
:1007B000092911DDE068A1F10A0707EB470C0727BB
:1007C00007FA0CF29043A1F10A0707EB470703FA77
:1007D00007F21043E0600CE0206901EB410C0727B1
:1007E00007FA0CF2904301EB410703FA07F21043BA
:1007F0002061A06BC0F30156EF1C06F1010CA7EBC2
:100800000C0707EB870C1F2707FA0CF29043EF1C2D
:1008100006F1010CA7EB0C0707EB870701FA07F2BB
:100820001043A063F0BD10B50A4600210023816B80
:1008300021F44011531E41EA0351816310BD08B5F4
:10084000002300930090009B0B440093009B1A60D0
:1008500008BD08B5024600200090009201F1280072
:10086000009B184400900098006880B208BD0A46BA
:1008700000214168164B19401143416070474162A5
:10088000826270470A460021416821F01F0111432E
:100890004160704740B109490831096841F40001DD
:1008A000064A0832116007E004490831096821F45A
:1008B0000001024A08321160704700000024014024
:1008C00000280140003C0140FFFEF0FFFDF7F1FF72
:1008D000FFFD3FFF0246002013680B400BB10120D3
:1008E00000E000207047CA430260704770B50246BE
:1008F0000020002300240B125568CEB205EA06043E
:1009000015681D4015B10CB1012000E0002070BD3C
:1009100000220A12D34303607047000010B504465A
:10092000CC48844208D10121042001F03FFC002181
:10093000042001F03BFC46E0C748844208D1012175
:10094000082001F033FC0021082001F02FFC3AE0E0
:10095000C248844208D10121102001F027FC002167
:10096000102001F023FC2EE0BD48844208D1012173
:10097000202001F01BFC0021202001F017FC22E0C8
:10098000B848844208D10121402001F00FFC002129
:10099000402001F00BFC16E0B348844208D101214D
:1009A000802001F003FC0021802001F0FFFB0AE021
:1009B000AE48844207D10121801501F0F7FB0021E8
:1009C000A01501F0F3FB10BD10B50121084601F0A0
:1009D000EDFB0021012001F0E9FB10BD2DE9F04104
:1009E000024600250026002000230024002791F85D
:1009F00003C00CF00F0591F803C00CF0100CBCF113
:100A0000000F03D091F802C04CEA050591F800C030
:100A1000BCF1000F31D0146800202BE04FF0010C26
:100A20000CFA00F3B1F800C00CEA03069E4220D194
:100A300083004FF00F0C0CFA03F7BC4305FA03FCDC
:100A40004CEA040491F803C0BCF1280F06D14FF022
:100A5000010C0CFA00FCC2F814C00AE091F803C0C3
:100A6000BCF1480F05D14FF0010C0CFA00FCC2F8A4
:100A700010C0401C0828D1D31460B1F800C0BCF1EC
:100A8000FF0F34DD546800202EE000F1080C4FF019
:100A9000010808FA0CF3B1F800C00CEA03069E4204
:100AA00021D183004FF00F0C0CFA03F7BC4305FA79
:100AB00003FC4CEA040491F803C0BCF1280F05D1F3
:100AC00000F1080C08FA0CF8C2F8148091F803C081
:100AD000BCF1480F07D100F1080C4FF0010808FAEB
:100AE0000CF8C2F81080401C0828CED35460BDE832
:100AF000F0814FF6FF710180022181700421C170E5
:100B000070470246002093680B400BB1012000E0C3
:100B1000002070470146886880B270470246002076
:100B2000D3680B400BB1012000E000207047014664
:100B3000C86880B2704701617047416170470AB16F
:100B4000016100E041617047C16070474FF480323D
:100B50000A438261816182618269826970470246CB
:100B60000020434B18684FF68073184040EA02108B
:100B700008433F4B186070473E49C8617047F0B565
:100B80000A46002300240021002500F00046B6F1AB
:100B9000004F02D1364EF16901E0354E7168C0F365
:100BA000034583B200F44016B6F5401F08D121F08A
:100BB00070612F4E766826F070662D4F7E6012E0D1
:100BC00000F48016B6F5801F06D1032606FA05F458
:100BD000A14341F0706106E0460D360103FA06F6C6
:100BE000B14341F0706122B1460D360103FA06F6B9
:100BF000314300F00046B6F1004F02D11C4EF161C6
:100C000001E01B4E7160F0BD30B500228B071C0F58
:100C10000F2303FA04F2164B08338C1053F82430D8
:100C20009343134C08348D1044F8253023468C1020
:100C300053F824308C07240F00FA04F423430C4C9F
:100C400008348D1044F8253030BD0A49DC31086085
:100C50007047000000080140000C014000100140F6
:100C60000014014000180140001C01400020014018
:100C7000000001400000204210B50446FE488442B6
:100C800008D10121C01401F091FA0021E01401F013
:100C90008DFAC4E0B4F1804F08D10121084601F07B
:100CA00092FA0021012001F08EFAB8E0F348844264
:100CB00008D10121022001F086FA0021022001F072
:100CC00082FAACE0EE48844208D10121042001F010
:100CD0007AFA0021042001F076FAA0E0E948844283
:100CE00008D10121082001F06EFA0021082001F04E
:100CF0006AFA94E0E448844208D10121102001F00E
:100D000062FA0021102001F05EFA88E0DF48844298
:100D100008D10121202001F056FA0021202001F005
:100D200052FA7CE0DA48844208D10121401401F0F3
:100D30003DFA0021601401F039FA70E0D548844290
:100D400009D10121C80401F031FA00214FF400203B
:100D500001F02CFA63E0D048844209D10121080552
:100D600001F024FA00214FF4801001F01FFA56E040
:100D7000CA48844209D10121480501F017FA00212F
:100D80004FF4001001F012FA49E0C548844208D13E
:100D90000121402001F017FA0021402001F013FA50
:100DA0003DE0C048844208D10121802001F00BFAC7
:100DB0000021802001F007FA31E0BB48844208D1CD
:100DC0000121801501F0FFF90021A01501F0FBF9C8
:100DD00025E0B648844209D10121080401F0E6F972
:100DE00000214FF4803001F0E1F918E0B04884426E
:100DF00009D10121480401F0D9F900214FF4003054
:100E000001F0D4F90BE0AB48844208D101218804F9
:100E100001F0CCF900214FF4802001F0C7F910BD9A
:100E200000220288944B98420ED0994B98420BD0E6
:100E3000B0F1804F08D0914B984205D0904B98422A
:100E400002D0904B984204D14FF68F731A404B88D2
:100E50001A438D4B984207D08C4B984204D04FF6E2
:100E6000FF431A40CB881A4302808B8883850B8806
:100E70000385814B98420BD0854B984208D08B4B11
:100E8000984205D08A4B984202D08A4B984201D1B1
:100E90000B7A038601238382704770B500240022F9
:100EA0000023058C4FF6FE7635400584028C83883E
:100EB000048B4FF68F752C40B51E2C400D882C43AB
:100EC000751E2A400D892A434D882A436A4DA8423F
:100ED0000BD06F4DA84208D0744DA84205D0744D78
:100EE000A84202D0734DA84213D14FF6F7752A409D
:100EF0004D892A434FF6FB752A408D882A434FF6C9
:100F0000FF652B404FF6FF552B408D892B43CD8934
:100F10002B4383800483CD888586028470BD70B5A1
:100F2000002400220023058C4FF6EF76354005841F
:100F3000028C8388048B48F6FF752C404FF6FF45E2
:100F40002C400D884FF6FF7606EA05252C434FF618
:100F5000DF752A400D8906EA05152A434D8806EA01
:100F600005152A43444DA84202D0494DA8421DD13F
:100F70004FF67F752A404D894FF6FF7606EA051534
:100F80002A434FF6BF752A408D8806EA05152A4385
:100F90004FF6FF352B404FF2FF752B408D8906EA47
:100FA00085052B43CD8906EA85052B438380048381
:100FB000CD880587028470BD70B50024002200230F
:100FC000058C4FF6FF6635400584028C8388848B40
:100FD0004FF68F752C404FF6FC752C400D882C4336
:100FE0004FF6FF552A400D894FF6FF7606EA052594
:100FF0002A434D8806EA05252A431F4DA84202D000
:10100000234DA8421DD14FF2FF752A404D894FF65E
:10101000FF7606EA05252A434FF6FF352A408D88DC
:1010200006EA05252A434EF6FF752B404DF6FF755F
:101030002B408D8906EA05152B43CD8906EA051557
:101040002B4383808483CD888587028470BD70B5EF
:10105000002200230024058C4EF6FF7635400584DF
:10106000038C8488828B48F6FF752A404FF6FF4533
:101070002A400D8820E00000002C014000040040C0
:1010800000080040000C0040001000400014004028
:1010900000340140004C0140005001400054014028
:1010A00000180040001C00400020004000400140AB
:1010B00000440140004801404FF6FF7606EA05254E
:1010C0002A434DF6FF752B400D8906EA05352B4363
:1010D0004D8806EA05352B43FA4DA84202D0FA4D59
:1010E000A84208D14BF6FF752C408D894FF6FF764C
:1010F00006EA85152C4384808283CD88A0F8405071
:10110000038470BD828B4FF2FF331A408283828B3F
:101110004FF6FF7303EA01231A4382837047F0B549
:101120000C461546002200210026078C4EF6FF7C57
:1011300007EA0C070784828B018C4FF6FF7707EADA
:10114000043640F6FF473A404FF6FF7707EA052797
:101150003A434FF6FF7707EA03373A43D94FB8428D
:101160000ED0D94FB8420BD0B0F1804F08D0D74F36
:10117000B84205D0D64FB84202D0D64FB84206D1B9
:101180004DF6FF77394046F48057394305E047F67E
:10119000FF57394044F48057394382830184F0BDBE
:1011A000828B4FF6F3731A408283828B0A438283C9
:1011B0007047F0B50C461546002200210026078C2A
:1011C0004FF6FF6C07EA0C070784828B018C4FF601
:1011D000FF7707EA04264FF60C773A404FF6FF7781
:1011E00007EA03172F433A43B64FB8420ED0B64F23
:1011F000B8420BD0B0F1804F08D0B44FB84205D000
:10120000B34FB84202D0B34FB84206D14FF6FF57A2
:10121000394046F48077394305E04FF2FF573940B3
:1012200044F48077394382830184F0BD028B4FF20E
:10123000FF331A400283028B4FF6FF7303EA012348
:101240001A4302837047F0B50C4615460022002170
:101250000026078C4FF6EF7C07EA0C070784028B09
:10126000018C4FF6FF7707EA041640F6FF473A4035
:101270004FF6FF7707EA03373A434FF6FF7707EA5F
:1012800005273A438F4FB8420ED08F4FB8420BD04C
:10129000B0F1804F08D08D4FB84205D08C4FB84286
:1012A00002D08C4FB84206D14FF6DF77394046F076
:1012B0001007394305E04FF65F77394044F01007D7
:1012C000394302830184F0BD028B4FF6F3731A4059
:1012D0000283028B0A4302837047F0B50C46154621
:1012E00000220021068C4FF6FE773E400684028BDA
:1012F000018C4FF60C7632407E1C06EA03162E4314
:101300003243704EB0420ED06F4EB0420BD0B0F1AF
:10131000804F08D06D4EB04205D06D4EB04202D025
:101320006C4EB04206D14FF6FD76314044F00106D6
:10133000314305E04FF6F576314044F00106314384
:1013400002830184F0BD70B505460C465D488542B8
:101350000ED05D4885420BD0B5F1804F08D05B4878
:10136000854205D05A48854202D05A48854200D16C
:1013700000E000BF208850B92389A28861882846F0
:10138000FFF7ABFFE1882846FFF79EFF25E02088A6
:1013900004280AD12389A28861882846FFF753FFD1
:1013A000E1882846FFF742FF17E0208808280AD185
:1013B0002389A28861882846FFF7FBFEE18828463A
:1013C000FFF7EEFE09E02389A28861882846FFF72F
:1013D000A6FEE1882846FFF795FE70BD2DE9F04195
:1013E00005460C4600260127608808B9022600E061
:1013F0000026A088012801D1022700E001272088CB
:10140000A0B92389A28861882846FFF766FFE18892
:101410002846FFF759FF23893A4631462846FFF709
:1014200012FFE1882846FFF701FF13E02389A28815
:1014300061882846FFF707FFE1882846FFF7F6FE98
:1014400023893A4631462846FFF747FFE188284678
:10145000FFF73AFFBDE8F0810A884B881A438B8872
:101460001A43CB881A430B891A434B891A438B8939
:101470001A43A0F8442070474FF6FF718180002185
:101480000180C1804180017270470021018041804C
:101490008180C180018141818181C18170470021AA
:1014A00001804180012181800021C180018170473C
:1014B0000021018041808180C18001814181818141
:1014C00070470000002C014000340140000400403F
:1014D00000080040000C004021B1028842F00102E7
:1014E000028004E002884FF6FE731A4002807047C3
:1014F00031B1B0F8442042F40042A0F8442005E0A5
:10150000B0F84420C2F30E02A0F8442070471AB18C
:1015100083890B43838102E083898B4383817047F6
:101520008182704741EA0203A0F8483070471AB13F
:1015300083890B43838102E083898B4383817047D6
:1015400001894FF6F8721140018170470A46002167
:1015500001894FF68F73194011430181704730B5EF
:1015600004460D4629462046FFF7F0FF208940F04B
:101570000700208130BD2DE9F04104460D46164696
:101580001F46602D06D13B46012231462046FFF71B
:101590005AFE05E03B46012231462046FFF79DFEFC
:1015A00029462046FFF7D2FF208940F0070020811E
:1015B000BDE8F08130B50C4600210189C9B24FF673
:1015C000FF7505EA0325154325432943018130BDF5
:1015D0002DE9F04105460E4617469846002443463D
:1015E0003A4631462846FFF7E5FF2C894FF6F8705A
:1015F000044044F007044FF68F70044044F0700438
:101600002C81BDE8F081F0B504460D4616461F4614
:101610003B46324629462046FFF7CCFF208940F45E
:1016200080402081F0BD0185828270470A460021FA
:1016300001884FF68F731940114301807047F0B550
:101640000C4615461E460021002200230189028B0C
:10165000038C4FF6F877394021434FF6FC473A4068
:1016600040F201173A434FF6DD773B404FF6FF77E4
:1016700007EA06172F433B43018102830384F0BD31
:101680000A460021018B4FF68F73194011430183E5
:1016900070470A460021018B48F6FF7319404FF648
:1016A000FF7303EA02231943018370470A460021AE
:1016B000818B4FF68F7319401143818370470A461F
:1016C0000021818B48F6FF7319404FF6FF7303EA40
:1016D000022319438183704721B1028842F08002BE
:1016E000028004E002884FF67F731A400280704740
:1016F00021B1828842F00402828004E082884FF6A1
:10170000FB731A408280704721B1828842F0080240
:10171000828004E082884FF6F7731A408280704717
:1017200021B1828842F00102828004E082884FF673
:10173000FE731A40828070470A460021018B4FF6E3
:10174000F77319401143018370470A460021018B4A
:101750004FF2FF7319404FF6FF7303EA0223194358
:10176000018370470A460021818B4FF6F7731940B9
:101770001143818370470A460021818B4FF2FF732A
:1017800019404FF6FF7303EA022319438183704720
:101790000A460021018B4FF6FB7319401143018368
:1017A00070470A460021018B4FF6FF3319404FF670
:1017B000FF7303EA02231943018370470A4600219D
:1017C000818B4FF6FB7319401143818370470A46A2
:1017D0000021818B4FF6FF3319404FF6FF7303EA68
:1017E00002231943818370470A460021018B4FF67B
:1017F0007F7319401143018370470A460021018B12
:10180000C1F30E014FF6FF7303EA0223194301836C
:1018100070470A460021818B4FF67F7319401143B0
:10182000818370470A460021818BC1F30E014FF678
:10183000FF7303EA02231943818370470A4600219C
:10184000018C4FF6FD7319401143018470470A461D
:101850000021018C4FF6F773194011430184704742
:101860000A460021018C4FF6DF7319404FF6FF73D3
:1018700003EA02131943018470470A460021018CD0
:101880004FF67F7319404FF6FF7303EA02131943B3
:10189000018470470A460021018C4FF6FF5319401E
:1018A0004FF6FF7303EA02231943018470470A4687
:1018B0000021018C4FF2FF7319404FF6FF7303EACA
:1018C00002231943018470470A460021018C4DF61A
:1018D000FF7319404FF6FF7303EA02331943018483
:1018E000704730B5002301248C40A3B2048C9C4384
:1018F0000484048C02FA01F5ADB22C43048430BD9B
:1019000030B5002304248C40A3B2048C9C4304848F
:10191000048C02FA01F5ADB22C43048430BD70B5DD
:101920000346002000241846183001258D40ACB233
:101930001D8CA5431D8409B1082909D100EB610064
:10194000056825F0700505600568154305600EE023
:101950000D1FC5F34E052844056825F4E0450560D4
:1019600005684FF6FF7606EA02263543056070BD2E
:1019700021B1028842F00202028004E002884FF6A0
:10198000FD731A400280704721B1028842F00402C0
:10199000028004E002884FF6FB731A400280704711
:1019A00021B1828842F08002828004E082884FF672
:1019B0007F731A408280704702884FF6F7731A408F
:1019C000028002880A430280704782884FF68F7334
:1019D0001A40828082880A438280704702894FF6CB
:1019E000F8731A40028102890A4302817047028912
:1019F0004FF67F731A40028102890A4302817047C1
:101A00008184704781857047818670470187704760
:101A100081877047A0F84010704702884FF6FF4357
:101A20001A40028002880A43028070470146888E6D
:101A300070470146088F70470146888F70470146FE
:101A4000B1F8400070470146888C70470146088D08
:101A5000704702460020138A0B400BB1012000E0C2
:101A600000207047CA430282704730B5024600200A
:101A700000230024158A05EA0103958905EA01047B
:101A800013B10CB1012000E0002030BDCA43028236
:101A90007047000010B50446FB48844209D101217B
:101AA000880300F083FB00214FF4804000F07EFBB0
:101AB00032E0F648844209D10121480400F083FB5A
:101AC00000214FF4003000F07EFB25E0F048844216
:101AD00009D10121880400F076FB00214FF4802019
:101AE00000F071FB18E0EB48844209D10121C804E1
:101AF00000F069FB00214FF4002000F064FB0BE0D4
:101B0000E548844208D10121080500F05CFB002172
:101B10004FF4801000F057FB10BD2DE9F04786B060
:101B200005460E460024A24600BFA1460027B08904
:101B300000B100BF2F462C8A4CF6FF700440F0889D
:101B400004432C82AC894EF6F3100440B0883189EE
:101B50000843718908430443AC81AC8A4FF6FF40C7
:101B60000440B0890443AC8201A800F098FAC6484A
:101B7000874202D1DDF810A001E0DDF80CA0A889B1
:101B800000F4004040B10AEBCA0000EB0A103168D3
:101B90004900B0FBF1F807E00AEBCA0000EB0A10BD
:101BA00031688900B0FBF1F86420B8FBF0F0040163
:101BB0002009642101FB1089A88900F4004040B18C
:101BC000322000EBC900B0FBF1F000F00700044345
:101BD00008E0322000EB09106421B0FBF1F000F0C6
:101BE0000F0004432C8106B0BDE8F0874FF4165176
:101BF000016000218180C18001810C21418100218F
:101C00008181704710B502460020108A4FF2FF0311
:101C100018400B884C8823438C882343CC8823436B
:101C20001843108210BD0021018041808180C18055
:101C3000704721B1828942F40052828104E0828996
:101C40004DF6FF731A4082817047F0B503460024B9
:101C500000260025002040F66A17B94200D100BFD7
:101C60001846C1F3421401F01F06012707FA06F5D2
:101C7000012C01D10C3004E0022C01D1103000E025
:101C800014301AB107682F43076002E00768AF43BA
:101C90000760F0BD1AB1838A0B43838202E0838A16
:101CA0008B4383827047028A4FF6F0731A40028298
:101CB000028A0A430282704782894FF2FF731A40F8
:101CC000828182890A438281704721B1828942F0F0
:101CD0000202828104E082894FF6FD731A408281FC
:101CE0007047028A4FF6DF731A400282028A0A4363
:101CF0000282704721B1028A42F48042028204E0EB
:101D0000028A4BF6FF731A4002827047C1F3080241
:101D10008280704701468888C0F308007047818937
:101D200041F0010181817047028BD2B20283028BA4
:101D300042EA012202837047028B02F47F4202834F
:101D4000028B0A430283704721B1828A42F020024B
:101D5000828204E0828A4FF6DF731A4082827047E3
:101D600021B1828A42F01002828204E0828A4FF618
:101D7000EF731A408282704721B1828A42F00802D2
:101D8000828204E0828A4FF6F7731A40828270479B
:101D900021B1828942F40042828103E08289C2F348
:101DA0000E028281704721B1828A42F400628282EF
:101DB00004E0828A4FF2FF731A4082827047828A5F
:101DC0004FF6FB731A408282828A0A4382827047EE
:101DD00021B1828A42F00202828204E0828A4FF6B6
:101DE000FD731A408282704702460020B1F5007FE1
:101DF00000D100BF13880B400BB1012000E0002090
:101E0000704701F40072B2F5007F00D100BFCA43F1
:101E10000280704770B50246002400230025002090
:101E200040F66A16B14200D100BFC1F3421501F07D
:101E30001F03012606FA03F3012D02D196893340D0
:101E400006E0022D02D1168A334001E0968A334023
:101E50000C12012606FA04F41688344013B10CB1B2
:101E6000012000E0002070BD10B50022002340F6E4
:101E70006A14A14200D100BF0A1201249440A3B207
:101E8000DC43048010BD00000038014000440040E5
:101E900000480040004C004000500040DF4800680F
:101EA00040F00100DD49086008464068DC49084010
:101EB000DA49486008460068DA490840D7490860AE
:101EC0000846006820F4802008600846406820F436
:101ED000FE0048604FF41F0088607047CF490968D2
:101EE00021F48031CD4A11601146096821F4802126
:101EF0001160B0F5803F03D0B0F5802F0ED106E021
:101F0000C649096841F48031C44A116007E0C349F9
:101F1000096841F4A021C14A116000E000BF00BF80
:101F2000704710B501460022002300204A11012A03
:101F300002D1BA4C236806E0022A02D1B74C236AC8
:101F400001E0B64C636A01F01F02012494401C407A
:101F50000CB1012000E0002010BD38B50020009039
:101F60000024002500BF3120FFF7DBFF0546009865
:101F7000401C00900098B0F5A06F01D0002DF2D069
:101F80003120FFF7CEFF08B1012400E000242046F5
:101F900038BD01460020A14A106820F0F80040EA50
:101FA000C10010607047A0490860704702460020D9
:101FB0009A4B586820F47C1042EA01031843974B6F
:101FC0005860704798490866704701460020934A58
:101FD000506820F003000843506070478F48406805
:101FE00000F00C007047014600208C4A506820F039
:101FF000F00008435060704701460020874A50684F
:1020000020F4E06008435060704701460020834A96
:10201000506820F4605040EAC1005060704729B118
:102020007E4A527A02437D4B5A7204E07B4A527ACE
:1020300082437A4B5A7270477B49D83108607047A7
:1020400001460020754A506820F440400843506023
:1020500070470021714A20321170704A82F82010B6
:10206000012802D004280AD104E001216B4A203261
:10207000117005E00521694A2032117000E000BFAF
:1020800000BF70476949086070476449096A0143A5
:10209000624A11627047654944390860704730B53B
:1020A00000210022002400235C4D6D6805F00C0126
:1020B00021B1042905D0082923D105E05C4D056034
:1020C00022E05B4D05601FE0544D6D6805F4701211
:1020D000524D6D6805F48034022505EB92421CB91F
:1020E000544D554305600BE04C4D6D6805F40035CB
:1020F0001DB1504D5543056002E04D4D55430560FF
:1021000002E04B4D056000BF00BF444D6D6805F017
:10211000F0010909484D6B5C0568DD4045603F4DA5
:102120006D6805F4E061090A434D6B5C4568DD406C
:1021300085603A4D6D6805F46051C90A3E4D6B5C8F
:102140004568DD40C560354D6D6805F44041890B3B
:102150003A4D6B5CC568B5FBF3F5056130BD29B13F
:102160002E4A526902432D4B5A6104E02B4A5269B0
:1021700082432A4B5A61704729B1284A9269024327
:10218000264B9A6104E0254A92698243234B9A6167
:10219000704729B1214AD2690243204BDA6104E039
:1021A0001E4AD26982431D4BDA61704729B11B4A2E
:1021B000D2680243194BDA6004E0184AD2688243BD
:1021C000164BDA60704729B1144A12690243134B67
:1021D0001A6104E0114A12698243104B1A61704778
:1021E00012494039086070470F49C86470470B496D
:1021F000C87170470948406A40F0807007494862DA
:10220000704701460020054A92680A400AB1012041
:1022100000E00020704701498872704700100240BA
:102220000000FFF8FFFFF6FE000042428004424239
:1022300000127A0000093D00140000202400002054
:1022400031490143314A1160704770B500210023C4
:102250000F22C47804B32D4C246804F4E064C4F560
:10226000E064210AC1F10403CA40447804FA03F18E
:102270008478144021430901254C0678A15504783F
:1022800004F01F050124AC4005786D11AD0005F187
:10229000E025C5F8004109E0047804F01F05012499
:1022A000AC401C4D0678761145F8264070BD1A4AA0
:1022B0000A400243154B1B1F1A60704739B1134A7D
:1022C000121D12680243114B1B1D1A6006E00F4AD3
:1022D000121D126882430D4B1B1D1A6070470428A3
:1022E00008D14FF0E021096941F004014FF0E022EC
:1022F000116107E04FF0E021096921F004014FF07E
:10230000E0221161704700000000FA050CED00E0CA
:1023100000E400E080E100E080FFFF1F002044496E
:102320000860091D0860091D0860091D0860414812
:102330003F4914310860704700213D498279002AE5
:102340003AD00A46126803689A430B461A600A1D7F
:10235000126803689A430B1D1A60027911440A68D7
:1023600003681A430A60324A0832126803689A43C3
:102370002F4B08331A601A1D126803689A432C4BBE
:102380000C331A604279102A0ED11A1F12680368A2
:102390001A43274B08331A601A1D126803681A4340
:1023A000234B0C331A600DE02149427911440A682D
:1023B00003681A430A6005E0027911440A68036859
:1023C0009A430A6070470021016001710C2141713C
:1023D0000021817170471649103109680143144A80
:1023E00010321160704701460020114A1432126801
:1023F0000A400AB1012000E0002070470C49143166
:1024000008607047014600200022094B1B6803EA60
:102410000102074B14331B680B4013B10AB10120B2
:1024200000E0002070470249143108607047000046
:1024300000040140FFFF0F0010B56FF00400FFF72C
:102440004EFF2E4800682E49B0FBF1F02D49087070
:102450000846007800EB4001C1EBC0104FF6FF7159
:1024600001EAC0002849088010BD0146254A1278BB
:102470004A434FF0E0235A6100229A611A461269DA
:1024800042F001021A6100BF4FF0E022106900F033
:1024900001021AB100F48032002AF5D04FF0E02298
:1024A000126922F001024FF0E0231A6100229A61C2
:1024B00070470146144A12884A434FF0E0235A619C
:1024C00000229A611A46126942F001021A6100BFA5
:1024D0004FF0E022106900F001021AB100F48032DE
:1024E000002AF5D04FF0E022126922F001024FF0ED
:1024F000E0231A6100229A6170470000000000206A
:1025000000127A00280000202A000020A34A0A4076
:102510000243A34B1A6070470146072323EA0102D6
:1025200012029F4B1B1D18684FF6FF0318409D4B6E
:10253000184310439A4B1B1D186070472DE9F0415A
:102540000746884614461D462846FFF7E5FFC5F1B5
:10255000040007FA00F60F20284100EA08000643AD
:1025600006F00F06E21704EBD2625211920002F15C
:10257000E022D2F800212146E31704EBD3635B117C
:10258000A4EB431C012303FA0CF31A432046E31780
:1025900004EBD3635B119B0003F1E023C3F800213C
:1025A0008148005D40EA06107F490855BDE8F0818A
:1025B00070B504460B46CE1701EB9676C6F387003E
:1025C000CE1701EB9676B610A1EB8606B606350E51
:1025D000764B9B6943F00103744EB3614FEAB63307
:1025E00053F820300F26AE40B343714E46F82030EA
:1025F000334653F8203004FA05F61E436C4B43F87B
:1026000020606C4B1B6801268E403343694E33605B
:1026100002F0010343B1674B0C331B6801268E4067
:102620003343644E0C36336002F0020343B1614B16
:1026300008331E6801238B401E435E4B08331E6027
:1026400070BD00B5002059490861C8601420486178
:1026500000208861C8610846006840F001000860F9
:102660000846406854490840504948600846006898
:10267000524908404D4908600846006820F480200F
:1026800008600846406820F4FE004860002088602A
:1026900000214FF00060FFF739FF00BD10B5404842
:1026A0000830006840F004003D49083108603F48A8
:1026B000C06940F080503D49C8614148406840F4DD
:1026C00080703F4948600846006840F00400086098
:1026D0000846006840F002000860FDF759FD10BD93
:1026E0003048001D2E49091D086070470146490603
:1026F0002E4A926942F001022C4B9A612C4A083A08
:10270000526822F0E0622A4B083B5A601A4652682F
:102710000A435A60704730B504460025FFF791FF21
:102720002248006840F480302049086000BF1F48FC
:102730000068400C0028FAD04FF480601B494860C4
:10274000A01EC4B20846406840EA8440486008467B
:10275000406840F4803048601A48006840F0320019
:10276000184908601148006840F080700F490860FF
:1027700000BF0E480068400E0028FAD00B484068A1
:1027800040F002000949486005E008484068C0F38D
:10279000870505F00305022DF7D130BD80FFFF1F2F
:1027A00008ED00E00000FA0500E400E0001002403F
:1027B00008000140000401400000FFF8FFFFF6FEA2
:1027C000007000400020024008B501210420FFF7FE
:1027D000D3FC4FF48050ADF8000010208DF80300BA
:1027E00003208DF8020069461048FEF7F7F808BD8F
:1027F00010B504460E480068401C0D490860A04210
:1028000013D14FF480510948FEF77BF928B94FF4F2
:1028100080510648FEF78FF904E04FF480510348D9
:10282000FEF78BF900200249086010BD0008014046
:102830002C0000201FB501210846FFF79DFC012157
:102840000820FFF799FC2020ADF80C0048208DF8F7
:102850000F0003A91148FEF7C1F805210120FEF77A
:10286000D3F92020019000208DF808000C208DF86D
:10287000090001208DF80A0001A8FFF75DFD17206F
:102880008DF8000002208DF8010001208DF8020073
:102890008DF803006846FFF7D8FC1FBD000C01400F
:1028A00000B587B001214FF40170FFF765FC4FF4CC
:1028B0000040FFF7C5FB1020ADF8040000208DF8A4
:1028C000070001A94B48FEF789F84B48FDF7FEFDCC
:1028D000002002908DF80C008DF80D004FF4602060
:1028E00004900020059001208DF8180002A94248AC
:1028F000FDF713FE01214048FDF73BFE3E48FDF782
:102900005AFE00BF3C48FDF75BFE0028FAD13A486A
:10291000FDF760FE00BF3848FDF761FE0028FAD1E0
:1029200007B000BD10B504460723012221463248F6
:10293000FDF78BFE01213048FDF75BFE00BF022151
:102940002D48FDF7C7FF0028F9D02B48FDF7E4FE1E
:1029500010BD2DE9F04F87B00420FFF7E3FF019091
:1029600005F0C8FA80464FF06632244B05F0D6FADF
:102970000022234BCDE9020105F0D0FA0022214BC1
:10298000CDE9040105F0CAFA064600221E4B05F007
:1029900013F9044600221D4B05F00EF9824605F09E
:1029A00063FA0690069807B0BDE8F08F70B504464C
:1029B0000D46FFF7CEFF1649086016480068401C18
:1029C000144908601448006811490968084412490C
:1029D000086010480068A8420AD1084600686421CF
:1029E00090FBF1F0206000200B4908600949086065
:1029F00070BD0000000801400024014066660A40E6
:102A000000002740000059400000F83F0000B0409F
:102A100030000020340000203800002000B587B0CE
:102A200001210846FFF7B5FB01210420FFF7A4FBB5
:102A30000320ADF8000004208DF8030069467548B6
:102A4000FDF7CCFF04A8FEF717FD0020ADF810003D
:102A50004FF6FF70ADF814000020ADF81600ADF889
:102A6000120004A94FF08040FEF7DAF900231A465D
:102A700003214FF08040FEF7E2FD01A8FEF70FFDB5
:102A80000A20ADF80C0001A94007FEF75CFC01210B
:102A90008807FEF7E7FF012211469007FEF737FD92
:102AA00000214FF08040FEF7ABFF47F6FF704FF07C
:102AB0008041888401218807FEF70EFD07B000BD24
:102AC00000B587B001210420FFF763FB0121082036
:102AD000FFF752FBC020ADF8000004208DF8030082
:102AE00069464D48FDF77AFF04A8FEF7C5FC0020B3
:102AF000ADF810004FF6FF70ADF814000020ADF8EF
:102B00001600ADF8120004A94448FEF789F9002325
:102B10001A4603214148FEF792FD01A8FEF7BFFCCB
:102B20000A20ADF80C0001A93C48FEF70CFC01217D
:102B30003A48FEF797FF012211463848FEF7E7FCB6
:102B400000213648FEF75CFF47F6FF703349243119
:102B5000088001213148FEF7BFFC07B000BD0146E7
:102B60008A8CA2F5FE42FF3A10B247F6FF728A84C1
:102B700070472DE9F05F044689462848FFF7EFFFCC
:102B8000274909680844264908604FF08040FFF74C
:102B9000E6FF244909680844224908602049096879
:102BA000214A1268891A4FF47A725143C82201FBF4
:102BB00002F005F088F905461C4A1D4B05F0AEF9F8
:102BC000074600221B4B05F0A9F9824605F04CF997
:102BD000206014490968184A1268891A4FF47A72F9
:102BE0005143C82201FB02F005F06DF907460F4A78
:102BF0000F4B05F093F9054605F036F9C9F80000CA
:102C00000748006808490860064800680A490860E3
:102C1000BDE8F09F00080140000C014000080040A2
:102C20003C000020400000204400002089D926708C
:102C30004628213F0000F0BF4800002030B589B091
:102C400005460C460121C802FFF796FA012104202F
:102C5000FFF792FA4FF41060ADF8200018208DF8BD
:102C6000230003208DF8220008A92948FDF7B6FEAD
:102C7000ADF81850ADF814400020ADF81A00ADF8CA
:102C8000160005A92348FEF7CBF86020ADF8040034
:102C90000120ADF806000020ADF80A00ADF80C00E8
:102CA00001A91C48FEF7F9F801A91A48FEF7CFF967
:102CB00001211848FEF71CFC08211648FEF73CFDD0
:102CC00008211448FEF757FD01211248FEF704FDC4
:102CD00001211048FEF700FC09B030BD38B50446AC
:102CE0000D4601210820FFF747FA4FF47040ADF878
:102CF000000010208DF8030003208DF802006946C3
:102D00000548FDF76BFE29462046FFF797FF38BDC3
:102D100000080140002C0140000C014010B586B0B5
:102D20000446012144F20400FFF726FA4FF4007034
:102D3000ADF8140003208DF8160018208DF8170048
:102D400005A91D48FDF74AFE4FF48060ADF8140058
:102D500004208DF8170005A91748FDF73FFE252030
:102D60008DF8000000208DF8010002208DF802008F
:102D700001208DF803006846FFF767FA01940020F0
:102D8000ADF80800ADF80A00ADF80C00ADF8100081
:102D90000C20ADF80E0001A90848FEF7BEFE012286
:102DA00040F225510548FEF750FF01210348FEF788
:102DB00040FF06B010BD000000080140003801408F
:102DC000014600BF704700BF2C4A128802F0400243
:102DD000002AF9D0C2B2294B1B1D1A80704710B5CA
:102DE00086B0044601210820FFF7C6F901218804B6
:102DF000FFF7CFF94FF48060ADF8140003208DF891
:102E0000160018208DF8170005A91D48FDF7E6FDEE
:102E10004FF40060ADF8140004208DF8170005A9E8
:102E20001748FDF7DBFD27208DF8000000208DF806
:102E3000010001208DF802008DF803006846FFF7BD
:102E400004FA01940020ADF80800ADF80A00ADF8CE
:102E50000C00ADF810000C20ADF80E0001A90748D9
:102E6000FEF75BFE012240F225510448FEF7EDFE1D
:102E700001210248FEF7DDFE06B010BD004800400B
:102E8000000C014008B501210820FFF775F94FF447
:102E90004070ADF8000010208DF8030003208DF87D
:102EA00002006946F748FDF799FD08BD10B5F548E1
:102EB000001D006820F0F000F249091D0860084676
:102EC000006840F0300008600120EF490860EF48DA
:102ED000D0F8240108B9002010BD0120EA49091FDB
:102EE0000860FFF7C2FA0020E849C1F8A401E648EB
:102EF0008038006808B10020EEE70120FFF7B5FA3E
:102F00000020E149091F08600120E5E710B5DD4810
:102F1000001D006820F0F000DA49091D086008462D
:102F2000006840F0300008600020D749091F0860A1
:102F3000D649C1F8A4010120FFF797FA0120D24930
:102F4000091F0860D149C1F8A401FFF78EFA10BD2E
:102F500010B50024CB48001D006820F0F000C949DE
:102F6000091D08600846006840F0800008600120E4
:102F7000C5490860FFF779FA0120C449C1F8A001EA
:102F8000FFF773FA0AE0601CC4B2322C03DDFFF7CE
:102F9000BDFF002010BD0120FFF767FABA48803856
:102FA00000680028EFD1B849091F08600120F1E747
:102FB00010B50020B449091F0860B248001D006820
:102FC00020F0F000AF49091D08600846006840F095
:102FD000300008600020AD49C1F8A4010120FFF7CE
:102FE00044FA0120A849091F0860FFF73EFA0020B3
:102FF000A649C1F8A00110BD10B50020A249091FC3
:103000000860A048001D006820F0F0009D49091DDF
:1030100008600846006840F03000086001209B49C5
:10302000C1F8A401FFF721FA01209749091F0860A0
:10303000FFF71BFA00209549C1F8A00110BD70B53B
:1030400004469048001D006820F0F0008D49091DDD
:1030500008600846006840F03000086000208A4997
:10306000091F0860002516E0E0098749086060062E
:10307000040E0120FFF7F9F901208449C1F8A001ED
:10308000FFF7F3F900208049091F08600120FFF7CE
:10309000ECF9681CC5B2082DE6DB70BD2DE9F041E6
:1030A00005460E4617469846FFF700FF10B9012067
:1030B000BDE8F0816906080EFFF7C1FFFFF748FF82
:1030C00018B9FFF723FF0120F2E73046FFF7B7FFFB
:1030D000FFF73EFF00240BE018F80400FFF7AFFFF6
:1030E000FFF736FF18B9FFF711FF0020E0E7641C77
:1030F000BC42F1DBFFF70AFF0020D9E770B50546B7
:1031000000246048001D006820F0F0005D49091DA2
:1031100008600846006840F080000860002617E05C
:1031200000205949091F08600220FFF79EF901207D
:103130005649C1F8A0016006040E53488038006863
:1031400008B1601CC4B20220FFF78FF9701CC6B230
:10315000082EE5DB15B1FFF72BFF01E0FFF74CFF71
:10316000204670BD2DE9F04106460F4614461D4627
:10317000FFF79CFE10B90120BDE8F0817106080E32
:10318000FFF75DFFFFF7E4FE18B9FFF7BFFE012070
:10319000F2E73846FFF753FFFFF7DAFEFFF786FE48
:1031A000012101EB4601C8B2FFF749FFFFF7D0FE4E
:1031B0000DE0012C04D10020FFF7A0FF287003E0F0
:1031C0000120FFF79BFF28706D1C601EC4B2002C0D
:1031D000EFD1FFF79BFE0020CEE770B505460E4607
:1031E0000024FFF763FE2846FFF729FF641CFFF762
:1031F000AFFE3046FFF723FF641CFFF7A9FEFFF781
:1032000055FE691CC8B2FFF71AFF641CFFF7A0FE49
:103210000020FFF773FF0446FFF778FE204670BDDD
:103220002DE9F0410746884615461E460024FFF763
:103230003DFE3846FFF703FFFFF78AFE4046FFF7E3
:10324000FEFEFFF785FEFFF731FE791CC8B2FFF7DF
:10325000F6FEFFF77DFE00BF0DE0681EA04204D021
:103260000120FFF74BFF305503E00020FFF746FF3A
:103270003055601CC4B2AC42EFDBFFF747FE20467E
:10328000BDE8F081000C0140A48121420080214270
:103290002DE9F04180460D4616461F460024FFF7F3
:1032A00005FE4046FFF7CBFEFFF752FE2846FFF72C
:1032B000C6FEFFF74DFE00BF06E0385DFFF7BFFE1C
:1032C000FFF746FE601CC4B2B442F6DBFFF71EFEF9
:1032D0000120BDE8F08170B505460E461446314622
:1032E0002846FFF77AFF2070012070BD37B50446ED
:1032F0000D4602AB012229462046FFF7C9FF3EBD1D
:103300002DE9F8430746884614461D46089E6A463E
:1033100041463846FFF7DFFF28B3601CFF2101FA62
:1033200000F0C4F108012944491EFF220A4110435C
:1033300000F0FF09C5F1080006FA00F0C6B2C4F1BA
:10334000070006419DF8000000EA090000909DF882
:103350000000304300909DF8002041463846FFF7BA
:10336000C5FFBDE8F8830020FBE7F8B506460F4629
:1033700014461D466A4639463046FFF7ACFF2DB16C
:103380000120A0409DF80010084305E00120A04066
:103390009DF8001021EA0000C0B200909DF80020C6
:1033A00039463046FFF7A2FFF8BD0000014691F90B
:1033B0000020002A01DD00201EE091F90020002AF3
:1033C00001DA042018E091F90120002A01DD012032
:1033D00012E091F90120002A01DA05200CE091F9B0
:1033E0000220002A01DD022006E091F90220002AD5
:1033F00001DA062000E00720704770B50546284630
:10340000FFF7D4FF0446E81CFFF7D0FF44EAC000F2
:1034100084B2A81DFFF7CAFF44EA801084B2204698
:1034200070BD70B588B002A905A802F09EF80446E8
:10343000032C3FD101A801F00DFB059805F02EF9F2
:103440000646019905F08AF9054605F0EBF8059066
:10345000069805F023F90646019905F07FF905461F
:1034600005F0E0F80690079805F018F9064601996E
:1034700005F074F9054605F0D5F8079005A802F0A7
:1034800084FB684601F003FBBDF800100298484336
:103490000290BDF80010039848430390BDF8001057
:1034A00004984843049002A802F002FCFEA003F036
:1034B0002DFE00BF08B070BD2DE9F04304460D4657
:1034C000DDE907670021012041E0DFF800C43CF896
:1034D0001080A0F1010CDFF8F49329F81C8009F1A9
:1034E000160C3CF81090A0F1010CDFF8E08308F115
:1034F000160828F81C9008F1160C3CF81090A0F162
:10350000010C08F1160828F81C9008F1160C3CF87C
:103510001090A0F1010C08F1160828F81C9008F191
:10352000160C3CF81090A0F1010C08F1160828F8D0
:103530001C9008F1160C3CF81090A0F1010C08F159
:10354000160828F81C9000F1010C0CF0FF000A2866
:10355000BBDBDFF878C3ACF81240ACF82850ACF80D
:103560003E20ACF85430ACF86A60ACF880700021B2
:10357000002008E0DFF854C33CF910C0614400F1BA
:10358000010C0CF0FF000A28F4DB4FF00A0C91FB51
:10359000FCFC0FFA8CFCDFF83483A8F814C000217F
:1035A00000200AE0DFF824C30CF1160C3CF910C02F
:1035B000614400F1010C0CF0FF000A28F2DB4FF02F
:1035C0000A0C91FBFCFC0FFA8CF8DFF800C3ACF896
:1035D0002A80002100200AE0DFF8F0C20CF12C0C58
:1035E0003CF910C0614400F1010C0CF0FF000A2806
:1035F000F2DB4FF00A0C91FBFCFC0FFA8CF8DFF8C1
:10360000CCC2ACF84080002100200AE0DFF8BCC248
:103610000CF1420C3CF910C0614400F1010C0CF0BB
:10362000FF000A28F2DB4FF00A0C91FBFCFC0FFABA
:103630008CF8DFF898C2ACF85680002100200AE030
:10364000DFF888C20CF1580C3CF910C0614400F15D
:10365000010C0CF0FF000A28F2DB4FF00A0C91FB82
:10366000FCFC0FFA8CF8DFF864C2ACF86C80002127
:1036700000200AE0DFF854C20CF16E0C3CF910C0D7
:10368000614400F1010C0CF0FF000A28F2DB4FF05E
:103690000A0C91FBFCFC0FFA8CF8DFF830C2ACF896
:1036A0008280BDE8F08338B50446032302226B21F3
:1036B000D0200094FFF724FE38BD38B5044602231D
:1036C00004221B21D0200094FFF71AFE38BD38B524
:1036D0000446022304221C21D0200094FFF710FE90
:1036E00038BD10B50446234606226B21D020FFF7D3
:1036F0003CFE10BD10B5764B01227521D020FFF79E
:103700008FFD7348007810BD10B5FFF7F3FF6828F0
:1037100001D1012010BD0020FCE710B5044623466E
:1037200005226A21D020FFF720FE10BD10B5044607
:10373000234601223721D020FFF717FE10BD10B518
:103740000220FFF7B0FF0320FFF7B7FF0020FFF7CD
:10375000BEFF0020FFF7C5FF0020FFF7DEFF0020BF
:10376000FFF7E4FF10BD38B5002000906B46012242
:1037700075216820FFF7F6FC56A003F0C7FC9DF802
:10378000000068280ED000BF5B48006800F4E060CD
:103790005A490843001D58490860BFF34F8F00BFC6
:1037A00000BFFEE700F063FE00283CD1782000F067
:1037B000C6FA10B947A003F0A9FC782000F0A6FCD7
:1037C00010B94FA003F0A2FCC82000F080FD10B992
:1037D00055A003F09BFC02F03DF910B95CA003F08A
:1037E00095FC6848FFF709FE044602F03DF910B960
:1037F00065A003F08BFC40F2731002F076FD10B967
:103800006BA003F083FCC82002F0E8FA10B972A0A4
:1038100003F07CFCFFF705FE012001F061FE10B90A
:1038200076A003F073FC38BD2DE9F04F8FB00CA8E3
:103830007B490DAB08AACDE900107A497A4802F01D
:10384000B3FE7748008800F4807000282AD00898DA
:1038500004F024FF04464FF09D4104F0EDFD734950
:103860000860099804F01AFF04464FF09D4104F0E7
:10387000E3FD6F4908600A9804F010FF04464FF01A
:103880009D4104F0D9FD6B4908600B9804F006FFD8
:1038900004464FF09D4104F0CFFD6749086008469B
:1038A0000168CBE019E1000073657474696E6720EC
:1038B000626961732073756363657366756C6C7997
:1038C000202E2E2E2E2E2E0D0A000000120100207A
:1038D000040100206D70755F7365745F73656E73AE
:1038E0006F7220636F6D706C657465202E2E2E2EA6
:1038F0002E2E0D0A000000000CED00E00000FA057D
:103900006D70755F636F6E6669677572655F666916
:10391000666F20636F6D706C657465202E2E2E2E81
:103920002E2E0D0A000000006D70755F7365745FC8
:1039300073616D706C655F7261746520636F6D702B
:103940006C657465202E2E2E2E2E2E0D0A00000082
:10395000646D705F6C6F61645F6D6F74696F6E5FD3
:103960006472697665725F6669726D7761726520EF
:10397000636F6D706C657465202E2E2E2E2E2E0DAD
:103980000A0000007C000020646D705F7365745F46
:103990006F7269656E746174696F6E20636F6D70AC
:1039A0006C657465202E2E2E2E2E2E0D0A00000022
:1039B000646D705F656E61626C655F66656174758C
:1039C000726520636F6D706C657465202E2E2E2ECF
:1039D0002E2E0D0A00000000646D705F7365745F29
:1039E0006669666F5F7261746520636F6D706C6588
:1039F0007465202E2E2E2E2E2E0D0A006D70755FF2
:103A00007365745F646D705F737461746520636F58
:103A10006D706C657465202E2E2E2E2E2E0D0A00D4
:103A20005C00002056000020500000206C000020A8
:103A3000700000207400002078000020006804F06E
:103A40008DFE059054480168006804F087FE0490DC
:103A500052480168006804F081FE029050480168F5
:103A6000006804F07BFE0190029904F077FC03905B
:103A7000049904F071FF8346059904F06DFF8246B6
:103A800004F040FCCDE9060146480168444800685E
:103A900004F064FE0590404801684048006804F066
:103AA0005DFE0490059904F059FC83464FF0804177
:103AB00004F054FE824604F025FC0646DDE90623A8
:103AC00003F0D8FE04464FF06632374B04F026FA76
:103AD000804603F08FFF354908600FB0BDE8F08FD6
:103AE0002DE9F05F4221D020FFF777FB0546412109
:103AF000D020FFF772FB05EB0024204604F0CEFD3A
:103B000082464FF08E41504604F0F4FE05D24FF04D
:103B10008F41504604F020FF82462549504604F06C
:103B20008BFC834604F0EEFB8046224A224B03F0D6
:103B300093FF06460022214B04F0F0F9044603F0FF
:103B400059FF8246504604F06DFDBDE8F09F70B508
:103B500004460D46FFF768FE00211448006804F093
:103B6000C9FD06D216491148006804F0F7FB0F4959
:103B700008600E48006820602968206804F0ECFEA8
:103B800020600021206804F0B5FD04D20C492068B3
:103B900004F0E4FB206070BD740000207000002081
:103BA0006C0000207800002066A64C4068000020D1
:103BB0000000AA43A4703D0AD743424000002440BD
:103BC0000000B44338B50446FB4890F82400C0B167
:103BD00014B10220009001E000200090F64A126823
:103BE000D17BF54A526810786B460122FFF756FAEE
:103BF00010B14FF0FF3038BD9DF80010EE48417411
:103C000023E0ED48807A10B94FF0FF30F3E724B19C
:103C1000E948407C08B10020EDE714B10120009094
:103C200001E000200090E44A1268D17BE24A526829
:103C300010786B460122FFF731FA10B14FF0FF30D8
:103C4000D9E79DF80010DC4841740020D3E738B56F
:103C5000002419E0D8480068C07AA04204D0D648B1
:103C60000068407DA04200D10CE0D3494968087843
:103C70006B4601222146FFF775FA10B14FF0FF3075
:103C800038BD00BF601CC4B2CB4840680079A04278
:103C9000E0DC0020F4E770B504460D46C648006835
:103CA000C07AA04204D0C4480068407DA04202D13E
:103CB0004FF0FF3070BDC04840680079A04202DC80
:103CC0004FF0FF30F6E7BC49496808782B460122DF
:103CD0002146FFF747FAEDE738B50446B64890F8B5
:103CE0002300A04201D1002038BD14B13020009043
:103CF00001E000200090B048807C20B19DF80000D9
:103D000040F002000090AC4890F8220020B19DF8ED
:103D1000000040F080000090A74A1268117DA64A7A
:103D2000526810786B460122FFF7B8F910B14FF0D6
:103D3000FF30D9E7A04880F823400020D4E738B509
:103D4000044604F0700010B10120009005E014B1A9
:103D50000020009001E040200090974A1268917C7A
:103D6000954A526810786B460122FFF797F920B107
:103D7000002191488172481E38BD9DF8000020F056
:103D800040018D4801730020009004F0400020B9EC
:103D90009DF8000040F00400009004F0200020B9DD
:103DA0009DF8000040F00200009004F0100020B9DF
:103DB0009DF8000040F00100009004F0080020B9D8
:103DC0009DF8000040F0380000907B4A1268D17CDA
:103DD000794A526810786B460122FFF75FF920B1EB
:103DE000002175488172481EC6E724B1082C02D014
:103DF0000020FFF771FF70488472002101753220A6
:103E0000FEF757FB0020B7E738B504466A48807CC8
:103E1000A04201D1002038BD002C46D0664A12686D
:103E20001179654A526810786B460122FFF79AF9BA
:103E300010B14FF0FF30EEE79DF8000020F02000B9
:103E400000905D4A126811795B4A526810786B469F
:103E50000122FFF723F910B14FF0FF30DBE7032019
:103E6000FEF727FB02200090534890F8220020B173
:103E70009DF8000040F0800000904F4890F823002B
:103E800020B19DF8000040F0300000904A4A1268CE
:103E9000117D494A526810786B460122FFF7FEF8FF
:103EA000002851D04FF0FF30B5E7434A126811792E
:103EB000414A526810786B460122FFF753F910B15E
:103EC0004FF0FF30A7E73C48807A00F0010028B1AE
:103ED0009DF8000040F02000009004E09DF80000F4
:103EE00020F020000090344A12681179324A52685A
:103EF00010786B460122FFF7D1F810B14FF0FF3078
:103F000089E70320FEF7D5FA2B4890F8220010B17C
:103F10008020009001E000200090274890F82300C6
:103F200020B19DF8000040F030000090224A126855
:103F3000117D214A526810786B460122FFF7AEF8D6
:103F400010B14FF0FF3066E71B488474002062E731
:103F500008B51948807A10B94FF0FF3008BD00202D
:103F60000090154A1268D17B134A526810786B464C
:103F70000122FFF793F810B14FF0FF30EEE70E4A41
:103F8000126851790C4A526810786B460122FFF78B
:103F900085F810B14FF0FF30E0E7074A1268117959
:103FA000054A526810786B460122FFF777F828B16E
:103FB0004FF0FF30D2E700008C000020F74890F867
:103FC0002400002850D00C200090F44A1268117987
:103FD000F24A526810786B460122FFF75FF810B181
:103FE0004FF0FF30BAE7C0200090EC48807A00F034
:103FF000010020B19DF8000040F020000090E74A49
:1040000012681179E54A526810786B460122FFF771
:1040100045F810B14FF0FF30A0E7E048407C10B108
:104020000220009001E000200090DC4A1268D17B61
:10403000DA4A526810786B460122FFF72FF810B168
:104040004FF0FF308AE700200090D44A126851797F
:10405000D24A526810786B460122FFF71FF80028F9
:1040600052D04FF0FF3079E704200090CB4A12681D
:104070001179CA4A526810786B460122FFF70EF890
:1040800010B14FF0FF3069E7C448807C20B9C348C5
:10409000807A00F0010010B94020009001E060201B
:1040A0000090BE4A12681179BC4A526810786B467B
:1040B0000122FEF7F3FF10B14FF0FF304EE7B74893
:1040C000407C10B10120009001E000200090B34A34
:1040D0001268D17BB14A526810786B460122FEF714
:1040E000DDFF10B14FF0FF3038E7AC4A126851796C
:1040F000AA4A52681078A94B10330122FEF7CEFF6E
:1041000010B14FF0FF3029E7002027E770B50446D3
:10411000002624F00104A14890F8240008B10020F2
:1041200070BD9E48807A10B94FF0FF30F8E79B4889
:10413000057C807A2040994908740846007CA0429A
:1041400002D04FF0FF3600E0002614B99348007DFE
:1041500018B10120FFF736FD02E00020FFF732FD25
:104160003CB1FFF7F5FE20B18C4805744FF0FF30ED
:10417000D6E73046D4E738B504468848807A10B987
:104180004FF0FF3038BDBC2C02DB0120009015E061
:10419000622C02DB0220009010E02A2C02DB0320BC
:1041A00000900BE0142C02DB0420009006E00A2CA7
:1041B00002DB0520009001E0062000907748C07ADD
:1041C0009DF80010884201D10020DBE7734A126895
:1041D0009178724A526810786B460122FEF75EFFB2
:1041E00010B14FF0FF30CDE79DF800106B48C17261
:1041F0000020C7E738B50446282C02DD4FF0FF3019
:1042000038BDDCB90020FFF767FD00208DF8000005
:1042100007208DF80100614A1268917C5F4A52685C
:1042200010786B460222FEF739FF10B14FF0FF30D5
:10423000E6E70021594801750020E1E70120FFF77A
:104240004BFD20208DF80000012C06D100208DF8B8
:1042500001000520FFF78FFF17E0052C06DC012089
:104260008DF801000520FFF786FF0EE0142C06DC18
:1042700002208DF801000A20FFF77DFF05E00320F2
:104280008DF801001420FFF776FF9DF8010007214B
:1042900001EB8010C0B28DF80100404A1268917C99
:1042A0003E4A526810786B460222FEF7F7FE10B1C4
:1042B0004FF0FF30A4E708213848817200210173D4
:1042C000012101750020FFF721FF002098E738B594
:1042D00004463248807A10B94FF0FF3038BD2F487D
:1042E00090F8240010B14FF0FF30F7E72B48007D25
:1042F00050B134B1282C04DCE0B2FFF77BFF002082
:10430000ECE70020FFF776FF042C01DA042404E038
:10431000B4F57A7F01DD4FF47A744FF47A7090FB34
:10432000F4F0401EC0B200901C4A126851781B4A3B
:10433000526810786B460122FEF7B0FE10B14FF0C4
:10434000FF30CBE79DF80000401C4FF47A7191FBE1
:10435000F0F081B21148C1810146C9894810FFF7C8
:104360000AFF0020BAE738B504460C48807A10B935
:104370004FF0FF3038BD022C06D0042C07D0082C9B
:1043800008D0102C0FD10BE0002000900EE0082088
:1043900000900BE01020009008E000008C0000204E
:1043A0001820009002E04FF0FF30E3E700BFF9482B
:1043B000407A9DF80010B0EBE10F01D10020D9E761
:1043C000F44A1268D179F34A526810786B46012298
:1043D000FEF764FE10B14FF0FF30CBE79DF8000010
:1043E000C110EC4841720020C4E738B50446E948E2
:1043F000807A10B94FF0FF3038BDFA2C09D0B4F5EF
:10440000FA7F09D0B4F57A7F09D0B4F5FA6F0CD1F0
:1044100008E0002000900BE00820009008E0102049
:10442000009005E01820009002E04FF0FF30E3E735
:1044300000BFD848007A9DF80010B0EBE10F01D121
:104440000020D9E7D34A12689179D24A526810788D
:104450006B460122FEF722FE10B14FF0FF30CBE792
:104460009DF80000C010CB4908720020C4E71CB5BD
:1044700080208DF80000C74A1268917CC54A5268B6
:1044800010786B460122FEF709FE10B14FF0FF30A5
:104490001CBD6420FEF70DF800208DF80000BD4A19
:1044A0001268917CBB4A526810786B460122FEF775
:1044B000F5FD10B14FF0FF30EAE7B64A1268917D82
:1044C000B44A526810786B460622FEF74BFE10B1D4
:1044D0004FF0FF30DCE79DF80500C007400F9DF866
:1044E000031001F0010140EA41009DF8011001F0C4
:1044F000010140EA010494B1012C03D10121A54836
:10450000C17431E0022C03D10021A248C1742BE018
:104510002146A1A002F0FAFD4FF0FF30B8E79D4A16
:104520001268D1789B4A526810786B460122FEF7D8
:1045300019FE10B14FF0FF30AAE79DF8000000F01F
:104540000F042CB99E4802F0E1FD4FF0FF309FE7C9
:10455000042C06D19BA002F0D9FD01218D48C17425
:1045600002E000218B48C174FF218A488172FF203C
:1045700088490872FF2187484172C1724FF6FF7166
:10458000C181FF21017481740121017380F822101F
:10459000002180F8231041750175163001604160DB
:1045A0008160163880F8241080F82510C1844FF4FB
:1045B000FA60FFF71AFF10B14FF0FF3068E70220F2
:1045C000FFF7D1FE10B14FF0FF3061E72A20FFF76F
:1045D000D2FD10B14FF0FF305AE73220FFF777FEDF
:1045E00010B14FF0FF3053E70020FFF78FFD10B1FF
:1045F0004FF0FF304CE70020FFF706FC10B14FF002
:10460000FF3045E70020FFF79AFB002040E77047A6
:104610007CB504460D465F48807A00F0700010B902
:104620004FF0FF307CBD5B4A1268117B594A5268DB
:1046300010786B460622FEF795FD10B14FF0FF3063
:10464000F0E79DF801009DF8001040EA012000B25B
:1046500020809DF803009DF8021040EA012000B27E
:1046600060809DF805009DF8041040EA012000B22A
:10467000A08015B12846FFF7CAFF0020D2E77CB51D
:1046800004460D464348807A00F0080010B94FF008
:10469000FF307CBD3F4A1268517B3E4A5268107819
:1046A0006B460622FEF75EFD10B14FF0FF30F0E7DB
:1046B0009DF801009DF8001040EA012000B2208022
:1046C0009DF803009DF8021040EA012000B26080CE
:1046D0009DF805009DF8041040EA012000B2A0807A
:1046E00015B12846FFF793FF0020D2E72DE9FE4FD2
:1046F00005460C462748807A18B94FF0FF30BDE8D0
:10470000FE8F244A1268917B224A5268107802ABCD
:104710000222FEF727FD10B14FF0FF30EFE79DF8C2
:1047200009009DF8081040EA012006B214B12046A5
:10473000FFF76DFF17494968C88803F0C7FF15499F
:1047400001904968B1F9080003F0A8FF834630469C
:1047500003F0A4FF5946009004F0FEF88246019948
:1047600003F06AFE81461F4903F0F8FD80464FF0D2
:104770008F4103F0F3FF074603F054FF2860002049
:10478000BDE710B588B004461CB94FF0FF3008B043
:1047900010BD29E08C000020556E737570706F722B
:1047A00074656420736F6674776172652070726FD0
:1047B00064756374207265762025642E0A000000FB
:1047C0002098000848616C662073656E736974698F
:1047D00076697479207061727420666F756E642ECC
:1047E0000D0A000000000C42206830B9606820B952
:1047F000A06810B9002008B010BDFA4949680878CF
:1048000006AB03221146FEF7ADFC10B14FF0FF30AE
:10481000F1E79DF81800082101EB201000F00F00CF
:10482000ADF800009DF8190001EB201000F00F001A
:10483000ADF802009DF81A0001EB201000F00F0007
:10484000ADF8040020684100BDF90000403091FB44
:10485000F0F000B2ADF8100060684100BDF9020050
:10486000403091FBF0F000B2ADF81200A0684100BA
:10487000BDF90400403091FBF0F000B2ADF8140037
:10488000D8494968087806AB06221146FEF76AFC4B
:1048900010B14FF0FF30AEE79DF819009DF81810E9
:1048A00040EA012000B2ADF808009DF81B009DF819
:1048B0001A1040EA012000B2ADF80A009DF81D0070
:1048C0009DF81C1040EA012000B2ADF80C00BDF8C4
:1048D0001000BDF80810084400B2ADF81000BDF893
:1048E0001200BDF80A10084400B2ADF81200BDF87D
:1048F0001400BDF80C10084400B2ADF81400BDF867
:104900001000000A8DF81800BDF81000C0B28DF834
:104910001900BDF81200000A8DF81A00BDF8120047
:10492000C0B28DF81B00BDF81400000A8DF81C0001
:10493000BDF81400C0B28DF81D00AA494968087876
:1049400006AB06221146FEF7A9FB10B14FF0FF306F
:1049500051E700204FE70146A248007A30B1012814
:1049600007D0022809D003280FD10AE0FA200880D6
:104970000EE04FF4FA7008800AE04FF47A70088075
:1049800006E04FF4FA60088002E00020088000BFD3
:1049900000BF0020704701469248407A30B101289C
:1049A00007D0022808D003280CD108E002200870A4
:1049B0000BE00420087008E00820087005E01020D3
:1049C000087002E04FF0FF30704700BF8548C07CA0
:1049D00018B108784006000E08700020F4E7014680
:1049E0008048C07A082817D2DFE800F01704070AC9
:1049F0000D101318BC20088013E06220088010E01E
:104A00002A2008800DE0142008800AE00A2008808F
:104A100007E00520088004E000BF00BF00200880F8
:104A200000BF00BF0020704701466E4890F8240088
:104A300010B14FF0FF3070476A48C08908800020ED
:104A4000F9E7014600200880401E704701464FF0FC
:104A5000FF30704701466348007A30B1012807D023
:104A6000022808D003280CD108E05F4808600BE05A
:104A70005E48086008E05E48086005E05D48086040
:104A800002E04FF0FF30704700BF0020FBE7014617
:104A90005448407A30B1012808D002280AD00328AF
:104AA00010D10BE04FF4804008800EE041F69C707E
:104AB00008800AE04FF48050088006E04FF4006060
:104AC000088002E04FF0FF30704700BF4548C07CCF
:104AD00010B10888401008800020F5E701464148E1
:104AE000007C08700020704701463E48807A10B173
:104AF0000120087001E0002008700020704738B5E0
:104B000004463848807A10B94FF0FF3038BD354A36
:104B10001268117C334A526810786B460222FEF705
:104B200021FB10B14FF0FF30F0E79DF801009DF838
:104B3000001040EA012000B220800020E6E72DE9C5
:104B4000FE4F0746884692461D46DDF830B00026E7
:104B50000024244890F8240010B1601EBDE8FE8FA8
:104B6000002028701F48807A10B94FF0FF30F5E719
:104B70001C48007C10B94FF0FF30EFE71948007C6B
:104B800000F0400008B1B01CC6B21648007C00F02E
:104B9000200008B1B01CC6B21248007C00F0100022
:104BA00008B1B01CC6B20F48007C00F0080008B184
:104BB000B01DC6B20B4A1268917A0A4A5268107840
:104BC0006B460222FEF7CEFA10B14FF0FF30C5E778
:104BD0009DF801009DF8001040EA0129B1450BDA6B
:104BE0000020BBE78C00002000000343000083424C
:104BF0003333034233338341FC4840684088B9EB88
:104C0000600F17DDF94A1268517CF84A5268107833
:104C10006B460122FEF7A6FA10B14FF0FF309DE778
:104C20009DF8000000F0100020B1FFF791F96FF03F
:104C3000010093E75046FFF7EAFCEC4A1268D17A8C
:104C4000EA4A526810786B463246FEF78BFA10B18A
:104C50004FF0FF3082E799FBF6F0401E8BF8000022
:104C600000202870B4422AD0E048007C00F0080000
:104C700028B3601C1DF800001DF8041040EA012054
:104C800000B2A8F80000E01C1DF80010A01C1DF8E0
:104C9000000041EA002000B2A8F80200601D1DF8E3
:104CA0000010201D1DF8000041EA002000B2A8F805
:104CB0000400287840F008002870A01D84B2B44297
:104CC00013D0CA48007C00F0400070B1601C1DF891
:104CD00000001DF8041040EA012000B23880287856
:104CE00040F040002870A01C84B2B44213D0BF48EA
:104CF000007C00F0200070B1601C1DF800001DF861
:104D0000041040EA012000B27880287840F02000AA
:104D10002870A01C84B2B44213D0B448007C00F0C8
:104D2000100070B1601C1DF800001DF8041040EA6E
:104D3000012000B2B880287840F010002870A01C34
:104D400084B200200AE7F8B504460F461646A74885
:104D500090F8240010B94FF0FF30F8BDA348807AD6
:104D600010B94FF0FF30F8E7A04A1268917A9F4AD5
:104D7000526810786B460222FEF7F4F910B14FF03A
:104D8000FF30EAE79DF801009DF8001040EA012598
:104D9000A54203DA00203070401EDEE793484068E9
:104DA0004088B5EB600F17DD904A1268517C8F4A3E
:104DB000526810786B460122FEF7D4F910B14FF01B
:104DC000FF30CAE79DF8000000F0100020B1FFF7A7
:104DD000BFF86FF00100C0E7E2B2844B1B68D97ADC
:104DE000824B5B6818783B46FEF7BCF910B14FF078
:104DF000FF30B2E795FBF4F0401E30700020ACE7C6
:104E000001467A4880F82210002070477CB505469C
:104E100076494968087801AB04220D21FEF7A2F912
:104E200008B107207CBD9DF80700C0F301109DF874
:104E3000041001F0E00140EAE1008DF800009DF867
:104E40000700C0F381009DF8051001F0E00140EA81
:104E5000E1008DF801009DF8070000F003009DF8C7
:104E6000061001F0E00140EAE1008DF802000024A4
:104E70001CE01DF8040018B9002045F8240013E0D8
:104E80005B4845F8240006E055F82400594903F032
:104E900065FC45F824001DF80400401EC0B20DF862
:104EA00004000028F0D100BF601CC4B2032CE0DB7A
:104EB0000020B7E72DE9FE4F06460F46002568465D
:104EC000FFF7A4FF002442E056F8240057F824100E
:104ED000A0EB010ABAF1000F01DB514601E0CAF173
:104EE0000001084603F0DAFB83464FF08F4103F0E0
:104EF000A3FA80465DF82400002103F05FFB16D082
:104F00005DF82410404603F097FA82464FF07E5138
:104F100003F022FD814629F0004A3748416A504695
:104F200003F0E8FC12D20120A04005430EE0324815
:104F3000C169404603F0DEFB05D32F48016A4046B5
:104F400003F0D8FC02D20120A0400543641C032CCE
:104F5000BADB2846BDE8FE8F2DE9FC5F06460F460A
:104F6000002522494968087801AB03220D21FEF78C
:104F7000F9F810B10720BDE8FC9F9DF8040000F08F
:104F80001F008DF804009DF8050000F01F008DF84B
:104F900005009DF8060000F01F008DF806000024B3
:104FA00062E056F8240057F82410A0EB010BBBF187
:104FB000000F01DB594601E0CBF10001084603F088
:104FC0006DFB4FF08F41009003F036FA814601A847
:104FD000005DC0B30849086803F078FB8346594672
:104FE000064803F029FA80460FE000008C000020FC
:104FF0007B14AE3E1D5A843F5C8B000800B04C45CC
:10500000FE49404603F0AAFB804601A8005D401E11
:10501000C0B201A908550028F2D14146484603F024
:105020000BFA83464FF07E5103F096FC82462AF03D
:10503000004BF3488169584603F05CFC13D2012011
:10504000A04005430FE0FFE7ED480169484603F043
:1050500051FB05D3EA484169484603F04BFC02D2B4
:105060000120A0400543641C032C9ADB284682E7FC
:105070002DE9F04F87B005460C46914601208DF88A
:10508000100000208DF81100DE4A1268917CDD4A84
:105090005268107804AB0222FEF700F820B14FF0FE
:1050A000FF3007B0BDE8F08FC820FDF702FA0020FE
:1050B0008DF81000D34A1268D17BD24A526810781A
:1050C00004AB0122FDF7EAFF10B14FF0FF30E8E733
:1050D000CC4A12685179CB4A5268107804AB01224D
:1050E000FDF7DCFF10B14FF0FF30DAE7C54A126878
:1050F000917CC44A5268107804AB0122FDF7CEFFC0
:1051000010B14FF0FF30CCE7BE4A1268D17DBD4AE6
:105110005268107804AB0122FDF7C0FF10B14FF0C8
:10512000FF30BEE7B74A12681179B64A5268107864
:1051300004AB0122FDF7B2FF10B14FF0FF30B0E732
:105140000C208DF81000AF4A12681179AD4A5268F0
:10515000107804AB0122FDF7A1FF10B14FF0FF3032
:105160009FE70F20FDF7A5F9A648806A407A8DF8E1
:105170001000A44A12689178A24A5268107804ABD1
:105180000122FDF78BFF10B14FF0FF3089E79D48FA
:10519000806A007A8DF810009A4A12685178994A0C
:1051A0005268107804AB0122FDF778FF10B14FF080
:1051B000FF3076E7B9F1000F07D09248806A807A15
:1051C00040F0E0008DF8100004E08E48806A807A9C
:1051D0008DF810008B4A126891798A4A52681078CB
:1051E00004AB0122FDF75AFF10B14FF0FF3058E732
:1051F000B9F1000F07D08348806AC07A40F0E00020
:105200008DF8100003E07E48C07A8DF810007D4ACA
:105210001268D1797B4A5268107804AB0122FDF7FD
:105220003DFF10B14FF0FF303BE7B9F1000F02D066
:10523000C820FDF73EF940208DF81000714A126831
:105240001179704A5268107804AB0122FDF726FFED
:1052500010B14FF0FF3024E778208DF81000694A34
:1052600012685179674A5268107804AB0122FDF741
:1052700015FF10B14FF0FF3013E761498889FDF742
:1052800018F900208DF810005E4A126851795D4AC5
:105290005268107804AB0122FDF700FF10B14FF007
:1052A000FF30FEE6574A1268917A564A52681078E3
:1052B00004AB0222FDF756FF10B14FF0FF30F0E6CD
:1052C0009DF811009DF8101040EA012B0C209BFB6B
:1052D000F0F0C6B20020A86068602860A06060603E
:1052E0002060824665E0474A1268D17A454A526892
:1052F000107804AB0C22FDF735FF10B14FF0FF30F2
:10530000CFE69DF811009DF8101040EA012000B290
:10531000ADF808009DF813009DF8121040EA012036
:1053200000B2ADF80A009DF815009DF8141040EA8F
:10533000012000B2ADF80C00BDF908102068084447
:105340002060BDF90A10606808446060BDF90C1067
:10535000A0680844A0609DF817009DF8161040EA68
:10536000012000B2ADF800009DF819009DF818105A
:1053700040EA012000B2ADF802009DF81B009DF844
:105380001A1040EA012000B2ADF80400BDF9001087
:10539000286808442860BDF90210686808446860FD
:1053A000BDF90410A8680844A8600AF1010000F0E3
:1053B000FF0AB24597DB1248D0F800C02868C11731
:1053C000090441EA1041070462460023384601F00F
:1053D00078FE32460023CDE9020101F072FE28601A
:1053E0000748D0F800C06868C117090441EA1041B5
:1053F000070462460023384606E0000054E3853F78
:105400005C8B00088C00002001F05BFE324600231C
:10541000CDE9020101F055FE6860FE48D0F800C0F9
:10542000A868C117090441EA104107046246002335
:10543000384601F046FE32460023CDE9020101F074
:1054400040FEA860F348D0F804C02168C8170004E3
:1054500040EA11480F04624600233846414601F0F5
:1054600030FE32460023CDE9020101F02AFE206021
:10547000E848D0F804C06068C117090441EA104147
:10548000070462460023384601F01BFE3246002323
:10549000CDE9020101F015FE6060DE48D0F804C0DD
:1054A000A068C117090441EA1041070462460023BD
:1054B000384601F006FE32460023CDE9020101F034
:1054C00000FEA060A068002804DDA068A0F5803080
:1054D000A06003E0A06800F58030A0600020E0E557
:1054E00038B50446CC4890F82400A04201D10020F1
:1054F00038BD24B3C84890F8250010B94FF0FF30EC
:10550000F6E70020FEF75EFB0020FEF77DFCC249B7
:10551000C88CFEF7DCFE00200090BF49496808787F
:105520006B4601222321FDF7B9FD0121BA4880F81D
:1055300024100120FEF746FBFEF70AFD13E00020D1
:10554000FEF740FBB448007C0090B34949680878F6
:105550006B4601222321FDF7A1FD0021AE4880F812
:105560002410FEF7F5FC0020C2E72DE9F04F8DB0C6
:1055700083460F4602200C90A74890F8240020B1E3
:105580000020FFF7ADFF012600E0002603A8FFF78B
:10559000E2F905A8FFF7FFF901A8FFF720FA02A832
:1055A000FFF742FA9C4890F80AA004A8FFF796FA81
:1055B000002407E0002239465846FFF759FD00B99C
:1055C00002E0641C022CF5DB00BF022C01D1002597
:1055D00028E0002407E0012206A909A8FFF748FDFA
:1055E00000B902E0641C022CF5DB00BF022C01D1E3
:1055F000002517E006A93846FFF75CFC00F0FF081D
:1056000009A95846FFF7A8FC00F0FF090025B9F1E9
:10561000000F01D145F00105B8F1000F01D145F0AF
:10562000020500BFFF207C490872FF217A484172C1
:10563000C1724FF6FF71C181FF2181720174012196
:105640000173BDF80C00FEF7D0FE9DF81400FEF7C4
:105650008AFEBDF80400FEF78EFDBDF80800FEF7D7
:1056600036FE5046FEF76BFB9DF81000FEF74EFD30
:1056700016B10120FFF734FF28460DB0BDE8F08FCA
:10568000F8B504460D46164616B94FF0FF30F8BD82
:105690006148807A10B94FF0FF30F8E720128DF89A
:1056A0000000E0B28DF801009DF8010028445A493D
:1056B00049684989884202DD4FF0FF30E7E7564AE2
:1056C0001268117E544A526810786B460222FDF728
:1056D000E5FC10B14FF0FF30D9E7EAB24E4B1B6842
:1056E000597D4D4B5B6818783346FDF7D7FC10B1F8
:1056F0004FF0FF30CBE70020C9E7F8B504460D4670
:10570000164616B94FF0FF30F8BD4348807A10B9FD
:105710004FF0FF30F8E720128DF80000E0B28DF86E
:1057200001009DF8010028443B49496849898842A5
:1057300002DD4FF0FF30E7E7374A1268117E364A44
:10574000526810786B460222FDF7A8FC10B14FF0AA
:10575000FF30D9E7EAB2304B1B68597D2E4B5B68AE
:1057600018783346FDF7FEFC10B14FF0FF30CBE761
:105770000020C9E72DE9F04385B005460E46904666
:105780009946254890F8250020B14FF0FF3005B02C
:10579000BDE8F08316B94FF0FF30F8E7002423E0AE
:1057A000281B102801DD102000E0281B87B23219C9
:1057B00039462046FFF764FF10B14FF0FF30E6E7AF
:1057C00001AA39462046FFF798FF10B14FF0FF308D
:1057D000DDE730193A4601A901F014FD10B16FF070
:1057E0000100D4E7E01984B2AC42D9DB4FEA2820AB
:1057F0008DF8000008F0FF008DF80100064A1268DD
:10580000917E054A526810786B460222FDF746FCED
:1058100038B103E05C8B00088C0000204FF0FF30B3
:10582000B5E701218A4880F82510A0F826900020CD
:10583000ADE70146864890F82400087000207047C4
:1058400002464FF0FF30704701464FF0FF3070477F
:10585000F8B505460F461446002C70D0B5F5FF5F2D
:1058600001DDFF2605E0202D01DA012601E0C5F368
:10587000471607B90127282C02DD4FF0FF30F8BD8D
:105880007348407D28BB724890F8240038B100204E
:10589000FFF726FE01216E4880F8201003E000216A
:1058A0006B4880F820106A481630FFF754F86848B3
:1058B0001830FFF770F866481A30FFF790F8644820
:1058C0001C30FFF7B1F86248817A81771F30FFF70B
:1058D00005F90020FEF776F90020FEF78BFC00208A
:1058E0008DF800005A4A12689178594A5268107827
:1058F0006B460122FDF7D2FB10B14FF0FF30BEE73F
:1059000040208DF80000524A1268D17B504A5268FC
:1059100010786B460122FDF7C1FB00B165E08DF800
:1059200000608DF801704A4A1268117A484A52683C
:1059300010786B460222FDF7B1FB08B155E047E055
:105940000520FCF7B6FD4248407A072101EBC00074
:10595000C0B28DF800003E4A1268D1793C4A5268C4
:1059600010786B460122FDF799FB00B13DE0202045
:105970008DF80000012C03D100208DF801000EE00D
:10598000052C03DC01208DF8010008E0142C03DC59
:1059900002208DF8010002E003208DF801009DF83F
:1059A0000100072101EB8010C0B28DF80100284AE8
:1059B0001268917C264A526810786B460222FDF7E5
:1059C0006DFB00B111E0012121484175002056E72F
:1059D0001F4A1632002103E0505C00B105E0491C6B
:1059E0000C29F9D34FF0FF3049E7FF20184908721E
:1059F000FF2117484172C1724FF6FF71C181FF212B
:105A000081720174012101730146887FFEF797F9C5
:105A10000F49C88AFEF7E9FC0D49087EFEF7A3FC92
:105A20000B49488BFEF7A7FB0949888BFEF74FFC13
:105A30000749C87FFEF76AFB054890F8200010B1BF
:105A40000120FFF74DFD002101484175002016E7B8
:105A50008C00002010B5C8234FF48062F74940F64F
:105A6000F630FFF787FE10BD10B586B00446F4A0EF
:105A700000680390F3A000680290F3A00068019012
:105A8000F2A00068009004F0030003A9085C8DF800
:105A9000140003A8C4F3C101405C8DF8150003A8ED
:105AA000C4F38111405C8DF8160004F0030002A9D4
:105AB000085C8DF8100002A8C4F3C101405C8DF8A9
:105AC000110002A8C4F38111405C8DF8120005AAF0
:105AD000032140F22640FFF7D3FD18B14FF0FF300D
